{
  "_format": "hh-sol-artifact-1",
  "contractName": "MyEpicGame",
  "sourceName": "contracts/MyEpicGame.sol",
  "abi": [
    {
      "inputs": [
        {
          "internalType": "string[]",
          "name": "characterNames",
          "type": "string[]"
        },
        {
          "internalType": "string[]",
          "name": "characterImageURIs",
          "type": "string[]"
        },
        {
          "internalType": "uint256[]",
          "name": "characterHp",
          "type": "uint256[]"
        },
        {
          "internalType": "uint256[]",
          "name": "characterAttackDmg",
          "type": "uint256[]"
        },
        {
          "internalType": "string",
          "name": "bossName",
          "type": "string"
        },
        {
          "internalType": "string",
          "name": "bossImageURI",
          "type": "string"
        },
        {
          "internalType": "uint256",
          "name": "bossHp",
          "type": "uint256"
        },
        {
          "internalType": "uint256",
          "name": "bossAttackDamage",
          "type": "uint256"
        }
      ],
      "stateMutability": "nonpayable",
      "type": "constructor"
    },
    {
      "anonymous": false,
      "inputs": [
        {
          "indexed": true,
          "internalType": "address",
          "name": "owner",
          "type": "address"
        },
        {
          "indexed": true,
          "internalType": "address",
          "name": "approved",
          "type": "address"
        },
        {
          "indexed": true,
          "internalType": "uint256",
          "name": "tokenId",
          "type": "uint256"
        }
      ],
      "name": "Approval",
      "type": "event"
    },
    {
      "anonymous": false,
      "inputs": [
        {
          "indexed": true,
          "internalType": "address",
          "name": "owner",
          "type": "address"
        },
        {
          "indexed": true,
          "internalType": "address",
          "name": "operator",
          "type": "address"
        },
        {
          "indexed": false,
          "internalType": "bool",
          "name": "approved",
          "type": "bool"
        }
      ],
      "name": "ApprovalForAll",
      "type": "event"
    },
    {
      "anonymous": false,
      "inputs": [
        {
          "indexed": false,
          "internalType": "uint256",
          "name": "newBossHp",
          "type": "uint256"
        },
        {
          "indexed": false,
          "internalType": "uint256",
          "name": "newPlayerHp",
          "type": "uint256"
        },
        {
          "indexed": false,
          "internalType": "uint256",
          "name": "flag",
          "type": "uint256"
        }
      ],
      "name": "AttackComplete",
      "type": "event"
    },
    {
      "anonymous": false,
      "inputs": [
        {
          "indexed": false,
          "internalType": "address",
          "name": "sender",
          "type": "address"
        },
        {
          "indexed": false,
          "internalType": "uint256",
          "name": "tokenId",
          "type": "uint256"
        },
        {
          "indexed": false,
          "internalType": "uint256",
          "name": "characterIndex",
          "type": "uint256"
        }
      ],
      "name": "CharacterNFTMinted",
      "type": "event"
    },
    {
      "anonymous": false,
      "inputs": [
        {
          "indexed": true,
          "internalType": "address",
          "name": "from",
          "type": "address"
        },
        {
          "indexed": true,
          "internalType": "address",
          "name": "to",
          "type": "address"
        },
        {
          "indexed": true,
          "internalType": "uint256",
          "name": "tokenId",
          "type": "uint256"
        }
      ],
      "name": "Transfer",
      "type": "event"
    },
    {
      "inputs": [
        {
          "internalType": "address",
          "name": "to",
          "type": "address"
        },
        {
          "internalType": "uint256",
          "name": "tokenId",
          "type": "uint256"
        }
      ],
      "name": "approve",
      "outputs": [],
      "stateMutability": "nonpayable",
      "type": "function"
    },
    {
      "inputs": [],
      "name": "attackBoss",
      "outputs": [],
      "stateMutability": "nonpayable",
      "type": "function"
    },
    {
      "inputs": [],
      "name": "attackBoss2",
      "outputs": [],
      "stateMutability": "nonpayable",
      "type": "function"
    },
    {
      "inputs": [
        {
          "internalType": "address",
          "name": "owner",
          "type": "address"
        }
      ],
      "name": "balanceOf",
      "outputs": [
        {
          "internalType": "uint256",
          "name": "",
          "type": "uint256"
        }
      ],
      "stateMutability": "view",
      "type": "function"
    },
    {
      "inputs": [],
      "name": "bigBoss",
      "outputs": [
        {
          "internalType": "string",
          "name": "name",
          "type": "string"
        },
        {
          "internalType": "string",
          "name": "imageURI",
          "type": "string"
        },
        {
          "internalType": "uint256",
          "name": "hp",
          "type": "uint256"
        },
        {
          "internalType": "uint256",
          "name": "maxHp",
          "type": "uint256"
        },
        {
          "internalType": "uint256",
          "name": "attackDamage",
          "type": "uint256"
        }
      ],
      "stateMutability": "view",
      "type": "function"
    },
    {
      "inputs": [],
      "name": "checkIfUserHasNFT",
      "outputs": [
        {
          "components": [
            {
              "internalType": "uint256",
              "name": "characterIndex",
              "type": "uint256"
            },
            {
              "internalType": "string",
              "name": "name",
              "type": "string"
            },
            {
              "internalType": "string",
              "name": "imageURI",
              "type": "string"
            },
            {
              "internalType": "uint256",
              "name": "hp",
              "type": "uint256"
            },
            {
              "internalType": "uint256",
              "name": "maxHp",
              "type": "uint256"
            },
            {
              "internalType": "uint256",
              "name": "attackDamage",
              "type": "uint256"
            }
          ],
          "internalType": "struct MyEpicGame.CharacterAttributes",
          "name": "",
          "type": "tuple"
        }
      ],
      "stateMutability": "view",
      "type": "function"
    },
    {
      "inputs": [],
      "name": "checkIfUserHasNFT2",
      "outputs": [
        {
          "components": [
            {
              "internalType": "uint256",
              "name": "characterIndex",
              "type": "uint256"
            },
            {
              "internalType": "string",
              "name": "name",
              "type": "string"
            },
            {
              "internalType": "string",
              "name": "imageURI",
              "type": "string"
            },
            {
              "internalType": "uint256",
              "name": "hp",
              "type": "uint256"
            },
            {
              "internalType": "uint256",
              "name": "maxHp",
              "type": "uint256"
            },
            {
              "internalType": "uint256",
              "name": "attackDamage",
              "type": "uint256"
            }
          ],
          "internalType": "struct MyEpicGame.CharacterAttributes",
          "name": "",
          "type": "tuple"
        }
      ],
      "stateMutability": "view",
      "type": "function"
    },
    {
      "inputs": [],
      "name": "getAllDefaultCharacters",
      "outputs": [
        {
          "components": [
            {
              "internalType": "uint256",
              "name": "characterIndex",
              "type": "uint256"
            },
            {
              "internalType": "string",
              "name": "name",
              "type": "string"
            },
            {
              "internalType": "string",
              "name": "imageURI",
              "type": "string"
            },
            {
              "internalType": "uint256",
              "name": "hp",
              "type": "uint256"
            },
            {
              "internalType": "uint256",
              "name": "maxHp",
              "type": "uint256"
            },
            {
              "internalType": "uint256",
              "name": "attackDamage",
              "type": "uint256"
            }
          ],
          "internalType": "struct MyEpicGame.CharacterAttributes[]",
          "name": "",
          "type": "tuple[]"
        }
      ],
      "stateMutability": "view",
      "type": "function"
    },
    {
      "inputs": [
        {
          "internalType": "uint256",
          "name": "tokenId",
          "type": "uint256"
        }
      ],
      "name": "getApproved",
      "outputs": [
        {
          "internalType": "address",
          "name": "",
          "type": "address"
        }
      ],
      "stateMutability": "view",
      "type": "function"
    },
    {
      "inputs": [],
      "name": "getBigBoss",
      "outputs": [
        {
          "components": [
            {
              "internalType": "string",
              "name": "name",
              "type": "string"
            },
            {
              "internalType": "string",
              "name": "imageURI",
              "type": "string"
            },
            {
              "internalType": "uint256",
              "name": "hp",
              "type": "uint256"
            },
            {
              "internalType": "uint256",
              "name": "maxHp",
              "type": "uint256"
            },
            {
              "internalType": "uint256",
              "name": "attackDamage",
              "type": "uint256"
            }
          ],
          "internalType": "struct MyEpicGame.BigBoss",
          "name": "",
          "type": "tuple"
        }
      ],
      "stateMutability": "view",
      "type": "function"
    },
    {
      "inputs": [
        {
          "internalType": "address",
          "name": "owner",
          "type": "address"
        },
        {
          "internalType": "address",
          "name": "operator",
          "type": "address"
        }
      ],
      "name": "isApprovedForAll",
      "outputs": [
        {
          "internalType": "bool",
          "name": "",
          "type": "bool"
        }
      ],
      "stateMutability": "view",
      "type": "function"
    },
    {
      "inputs": [
        {
          "internalType": "uint256",
          "name": "_characterIndex",
          "type": "uint256"
        }
      ],
      "name": "mintCharacterNFT",
      "outputs": [],
      "stateMutability": "nonpayable",
      "type": "function"
    },
    {
      "inputs": [
        {
          "internalType": "uint256",
          "name": "_characterIndex",
          "type": "uint256"
        }
      ],
      "name": "mintCharacterNFT2",
      "outputs": [],
      "stateMutability": "nonpayable",
      "type": "function"
    },
    {
      "inputs": [],
      "name": "name",
      "outputs": [
        {
          "internalType": "string",
          "name": "",
          "type": "string"
        }
      ],
      "stateMutability": "view",
      "type": "function"
    },
    {
      "inputs": [
        {
          "internalType": "uint256",
          "name": "",
          "type": "uint256"
        }
      ],
      "name": "nftHolderAttributes",
      "outputs": [
        {
          "internalType": "uint256",
          "name": "characterIndex",
          "type": "uint256"
        },
        {
          "internalType": "string",
          "name": "name",
          "type": "string"
        },
        {
          "internalType": "string",
          "name": "imageURI",
          "type": "string"
        },
        {
          "internalType": "uint256",
          "name": "hp",
          "type": "uint256"
        },
        {
          "internalType": "uint256",
          "name": "maxHp",
          "type": "uint256"
        },
        {
          "internalType": "uint256",
          "name": "attackDamage",
          "type": "uint256"
        }
      ],
      "stateMutability": "view",
      "type": "function"
    },
    {
      "inputs": [
        {
          "internalType": "address",
          "name": "",
          "type": "address"
        }
      ],
      "name": "nftHolders",
      "outputs": [
        {
          "internalType": "uint256",
          "name": "",
          "type": "uint256"
        }
      ],
      "stateMutability": "view",
      "type": "function"
    },
    {
      "inputs": [
        {
          "internalType": "address",
          "name": "",
          "type": "address"
        }
      ],
      "name": "nftHolders2",
      "outputs": [
        {
          "internalType": "uint256",
          "name": "",
          "type": "uint256"
        }
      ],
      "stateMutability": "view",
      "type": "function"
    },
    {
      "inputs": [
        {
          "internalType": "uint256",
          "name": "tokenId",
          "type": "uint256"
        }
      ],
      "name": "ownerOf",
      "outputs": [
        {
          "internalType": "address",
          "name": "",
          "type": "address"
        }
      ],
      "stateMutability": "view",
      "type": "function"
    },
    {
      "inputs": [
        {
          "internalType": "address",
          "name": "from",
          "type": "address"
        },
        {
          "internalType": "address",
          "name": "to",
          "type": "address"
        },
        {
          "internalType": "uint256",
          "name": "tokenId",
          "type": "uint256"
        }
      ],
      "name": "safeTransferFrom",
      "outputs": [],
      "stateMutability": "nonpayable",
      "type": "function"
    },
    {
      "inputs": [
        {
          "internalType": "address",
          "name": "from",
          "type": "address"
        },
        {
          "internalType": "address",
          "name": "to",
          "type": "address"
        },
        {
          "internalType": "uint256",
          "name": "tokenId",
          "type": "uint256"
        },
        {
          "internalType": "bytes",
          "name": "data",
          "type": "bytes"
        }
      ],
      "name": "safeTransferFrom",
      "outputs": [],
      "stateMutability": "nonpayable",
      "type": "function"
    },
    {
      "inputs": [
        {
          "internalType": "address",
          "name": "operator",
          "type": "address"
        },
        {
          "internalType": "bool",
          "name": "approved",
          "type": "bool"
        }
      ],
      "name": "setApprovalForAll",
      "outputs": [],
      "stateMutability": "nonpayable",
      "type": "function"
    },
    {
      "inputs": [
        {
          "internalType": "bytes4",
          "name": "interfaceId",
          "type": "bytes4"
        }
      ],
      "name": "supportsInterface",
      "outputs": [
        {
          "internalType": "bool",
          "name": "",
          "type": "bool"
        }
      ],
      "stateMutability": "view",
      "type": "function"
    },
    {
      "inputs": [],
      "name": "symbol",
      "outputs": [
        {
          "internalType": "string",
          "name": "",
          "type": "string"
        }
      ],
      "stateMutability": "view",
      "type": "function"
    },
    {
      "inputs": [
        {
          "internalType": "uint256",
          "name": "_tokenId",
          "type": "uint256"
        }
      ],
      "name": "tokenURI",
      "outputs": [
        {
          "internalType": "string",
          "name": "",
          "type": "string"
        }
      ],
      "stateMutability": "view",
      "type": "function"
    },
    {
      "inputs": [
        {
          "internalType": "address",
          "name": "from",
          "type": "address"
        },
        {
          "internalType": "address",
          "name": "to",
          "type": "address"
        },
        {
          "internalType": "uint256",
          "name": "tokenId",
          "type": "uint256"
        }
      ],
      "name": "transferFrom",
      "outputs": [],
      "stateMutability": "nonpayable",
      "type": "function"
    }
  ],
  "bytecode": "0x60806040523480156200001157600080fd5b506040516200603038038062006030833981810160405281019062000037919062000b6f565b6040518060400160405280600d81526020017f616e696d616c20626174746c65000000000000000000000000000000000000008152506040518060400160405280600c81526020017f414e494d414c424154544c4500000000000000000000000000000000000000008152508160009080519060200190620000bb92919062000715565b508060019080519060200190620000d492919062000715565b50505060005b88518110156200041b57600c6040518060c001604052808381526020018b84815181106200010d576200010c62000cf2565b5b602002602001015181526020018a848151811062000130576200012f62000cf2565b5b6020026020010151815260200189848151811062000153576200015262000cf2565b5b6020026020010151815260200189848151811062000176576200017562000cf2565b5b6020026020010151815260200188848151811062000199576200019862000cf2565b5b60200260200101518152509080600181540180825580915050600190039060005260206000209060060201600090919091909150600082015181600001556020820151816001019080519060200190620001f592919062000715565b5060408201518160020190805190602001906200021492919062000715565b50606082015181600301556080820151816004015560a0820151816005015550506000600c82815481106200024e576200024d62000cf2565b5b90600052602060002090600602016040518060c001604052908160008201548152602001600182018054620002839062000d50565b80601f0160208091040260200160405190810160405280929190818152602001828054620002b19062000d50565b8015620003025780601f10620002d65761010080835404028352916020019162000302565b820191906000526020600020905b815481529060010190602001808311620002e457829003601f168201915b505050505081526020016002820180546200031d9062000d50565b80601f01602080910402602001604051908101604052809291908181526020018280546200034b9062000d50565b80156200039c5780601f1062000370576101008083540402835291602001916200039c565b820191906000526020600020905b8154815290600101906020018083116200037e57829003601f168201915b50505050508152602001600382015481526020016004820154815260200160058201548152505090506200040360405180606001604052806025815260200162005fe1602591398260200151836060015184604001516200062a60201b6200243f1760201c565b5060018162000413919062000db5565b9050620000da565b506040518060a0016040528085815260200184815260200183815260200183815260200182815250600660008201518160000190805190602001906200046392919062000715565b5060208201518160010190805190602001906200048292919062000715565b50604082015181600201556060820151816003015560808201518160040155905050620006056040518060600160405280602a815260200162006006602a913960066000018054620004d49062000d50565b80601f0160208091040260200160405190810160405280929190818152602001828054620005029062000d50565b8015620005535780601f10620005275761010080835404028352916020019162000553565b820191906000526020600020905b8154815290600101906020018083116200053557829003601f168201915b505050505060066002015460066001018054620005709062000d50565b80601f01602080910402602001604051908101604052809291908181526020018280546200059e9062000d50565b8015620005ef5780601f10620005c357610100808354040283529160200191620005ef565b820191906000526020600020905b815481529060010190602001808311620005d157829003601f168201915b50505050506200062a60201b6200243f1760201c565b6200061c600b620006d660201b620024e11760201c565b505050505050505062000ee2565b620006d08484848460405160240162000647949392919062000e80565b6040516020818303038152906040527f8d142cdd000000000000000000000000000000000000000000000000000000007bffffffffffffffffffffffffffffffffffffffffffffffffffffffff19166020820180517bffffffffffffffffffffffffffffffffffffffffffffffffffffffff8381831617835250505050620006ec60201b60201c565b50505050565b6001816000016000828254019250508190555050565b60008151905060006a636f6e736f6c652e6c6f679050602083016000808483855afa5050505050565b828054620007239062000d50565b90600052602060002090601f01602090048101928262000747576000855562000793565b82601f106200076257805160ff191683800117855562000793565b8280016001018555821562000793579182015b828111156200079257825182559160200191906001019062000775565b5b509050620007a29190620007a6565b5090565b5b80821115620007c1576000816000905550600101620007a7565b5090565b6000604051905090565b600080fd5b600080fd5b600080fd5b6000601f19601f8301169050919050565b7f4e487b7100000000000000000000000000000000000000000000000000000000600052604160045260246000fd5b6200082982620007de565b810181811067ffffffffffffffff821117156200084b576200084a620007ef565b5b80604052505050565b600062000860620007c5565b90506200086e82826200081e565b919050565b600067ffffffffffffffff821115620008915762000890620007ef565b5b602082029050602081019050919050565b600080fd5b600080fd5b600067ffffffffffffffff821115620008ca57620008c9620007ef565b5b620008d582620007de565b9050602081019050919050565b60005b8381101562000902578082015181840152602081019050620008e5565b8381111562000912576000848401525b50505050565b60006200092f6200092984620008ac565b62000854565b9050828152602081018484840111156200094e576200094d620008a7565b5b6200095b848285620008e2565b509392505050565b600082601f8301126200097b576200097a620007d9565b5b81516200098d84826020860162000918565b91505092915050565b6000620009ad620009a78462000873565b62000854565b90508083825260208201905060208402830185811115620009d357620009d2620008a2565b5b835b8181101562000a2157805167ffffffffffffffff811115620009fc57620009fb620007d9565b5b80860162000a0b898262000963565b85526020850194505050602081019050620009d5565b5050509392505050565b600082601f83011262000a435762000a42620007d9565b5b815162000a5584826020860162000996565b91505092915050565b600067ffffffffffffffff82111562000a7c5762000a7b620007ef565b5b602082029050602081019050919050565b6000819050919050565b62000aa28162000a8d565b811462000aae57600080fd5b50565b60008151905062000ac28162000a97565b92915050565b600062000adf62000ad98462000a5e565b62000854565b9050808382526020820190506020840283018581111562000b055762000b04620008a2565b5b835b8181101562000b32578062000b1d888262000ab1565b84526020840193505060208101905062000b07565b5050509392505050565b600082601f83011262000b545762000b53620007d9565b5b815162000b6684826020860162000ac8565b91505092915050565b600080600080600080600080610100898b03121562000b935762000b92620007cf565b5b600089015167ffffffffffffffff81111562000bb45762000bb3620007d4565b5b62000bc28b828c0162000a2b565b985050602089015167ffffffffffffffff81111562000be65762000be5620007d4565b5b62000bf48b828c0162000a2b565b975050604089015167ffffffffffffffff81111562000c185762000c17620007d4565b5b62000c268b828c0162000b3c565b965050606089015167ffffffffffffffff81111562000c4a5762000c49620007d4565b5b62000c588b828c0162000b3c565b955050608089015167ffffffffffffffff81111562000c7c5762000c7b620007d4565b5b62000c8a8b828c0162000963565b94505060a089015167ffffffffffffffff81111562000cae5762000cad620007d4565b5b62000cbc8b828c0162000963565b93505060c062000ccf8b828c0162000ab1565b92505060e062000ce28b828c0162000ab1565b9150509295985092959890939650565b7f4e487b7100000000000000000000000000000000000000000000000000000000600052603260045260246000fd5b7f4e487b7100000000000000000000000000000000000000000000000000000000600052602260045260246000fd5b6000600282049050600182168062000d6957607f821691505b6020821081141562000d805762000d7f62000d21565b5b50919050565b7f4e487b7100000000000000000000000000000000000000000000000000000000600052601160045260246000fd5b600062000dc28262000a8d565b915062000dcf8362000a8d565b9250827fffffffffffffffffffffffffffffffffffffffffffffffffffffffffffffffff0382111562000e075762000e0662000d86565b5b828201905092915050565b600081519050919050565b600082825260208201905092915050565b600062000e3b8262000e12565b62000e47818562000e1d565b935062000e59818560208601620008e2565b62000e6481620007de565b840191505092915050565b62000e7a8162000a8d565b82525050565b6000608082019050818103600083015262000e9c818762000e2e565b9050818103602083015262000eb2818662000e2e565b905062000ec3604083018562000e6f565b818103606083015262000ed7818462000e2e565b905095945050505050565b6150ef8062000ef26000396000f3fe608060405234801561001057600080fd5b50600436106101735760003560e01c806395d89b41116100de578063b953084e11610097578063d4f24c5b11610071578063d4f24c5b14610469578063e985e9c514610473578063f8b81ef7146104a3578063fae8f290146104bf57610173565b8063b953084e146103fd578063c87b56dd1461041b578063c8cf27f41461044b57610173565b806395d89b411461032057806398da4c951461033e578063a22cb46514610373578063a9c326791461038f578063b3e3931c146103b1578063b88d4fde146103e157610173565b80632e85a620116101305780632e85a6201461024c57806342842e0e1461026a5780636352211e1461028657806370a08231146102b65780637df124a1146102e65780638fe49e311461031657610173565b806301ffc9a7146101785780630665f961146101a857806306fdde03146101c6578063081812fc146101e4578063095ea7b31461021457806323b872dd14610230575b600080fd5b610192600480360381019061018d9190613636565b6104db565b60405161019f919061367e565b60405180910390f35b6101b06105bd565b6040516101bd91906137c8565b60405180910390f35b6101ce610719565b6040516101db9190613834565b60405180910390f35b6101fe60048036038101906101f99190613882565b6107ab565b60405161020b91906138f0565b60405180910390f35b61022e60048036038101906102299190613937565b6107f1565b005b61024a60048036038101906102459190613977565b610909565b005b610254610969565b6040516102619190613a5a565b60405180910390f35b610284600480360381019061027f9190613977565b610b41565b005b6102a0600480360381019061029b9190613882565b610b61565b6040516102ad91906138f0565b60405180910390f35b6102d060048036038101906102cb9190613a7c565b610c13565b6040516102dd9190613ab8565b60405180910390f35b61030060048036038101906102fb9190613a7c565b610ccb565b60405161030d9190613ab8565b60405180910390f35b61031e610ce3565b005b610328611071565b6040516103359190613834565b60405180910390f35b61035860048036038101906103539190613882565b611103565b60405161036a96959493929190613ad3565b60405180910390f35b61038d60048036038101906103889190613b6e565b61124f565b005b610397611265565b6040516103a8959493929190613bae565b60405180910390f35b6103cb60048036038101906103c69190613a7c565b611399565b6040516103d89190613ab8565b60405180910390f35b6103fb60048036038101906103f69190613d44565b6113b1565b005b610405611413565b6040516104129190613f19565b60405180910390f35b61043560048036038101906104309190613882565b6115be565b6040516104429190613834565b60405180910390f35b6104536117d9565b6040516104609190613a5a565b60405180910390f35b6104716119b1565b005b61048d60048036038101906104889190613f3b565b611d3f565b60405161049a919061367e565b60405180910390f35b6104bd60048036038101906104b89190613882565b611dd3565b005b6104d960048036038101906104d49190613882565b612109565b005b60007f80ac58cd000000000000000000000000000000000000000000000000000000007bffffffffffffffffffffffffffffffffffffffffffffffffffffffff1916827bffffffffffffffffffffffffffffffffffffffffffffffffffffffff191614806105a657507f5b5e139f000000000000000000000000000000000000000000000000000000007bffffffffffffffffffffffffffffffffffffffffffffffffffffffff1916827bffffffffffffffffffffffffffffffffffffffffffffffffffffffff1916145b806105b657506105b5826124f7565b5b9050919050565b6105c56134c2565b60066040518060a00160405290816000820180546105e290613faa565b80601f016020809104026020016040519081016040528092919081815260200182805461060e90613faa565b801561065b5780601f106106305761010080835404028352916020019161065b565b820191906000526020600020905b81548152906001019060200180831161063e57829003601f168201915b5050505050815260200160018201805461067490613faa565b80601f01602080910402602001604051908101604052809291908181526020018280546106a090613faa565b80156106ed5780601f106106c2576101008083540402835291602001916106ed565b820191906000526020600020905b8154815290600101906020018083116106d057829003601f168201915b505050505081526020016002820154815260200160038201548152602001600482015481525050905090565b60606000805461072890613faa565b80601f016020809104026020016040519081016040528092919081815260200182805461075490613faa565b80156107a15780601f10610776576101008083540402835291602001916107a1565b820191906000526020600020905b81548152906001019060200180831161078457829003601f168201915b5050505050905090565b60006107b682612561565b6004600083815260200190815260200160002060009054906101000a900473ffffffffffffffffffffffffffffffffffffffff169050919050565b60006107fc82610b61565b90508073ffffffffffffffffffffffffffffffffffffffff168373ffffffffffffffffffffffffffffffffffffffff16141561086d576040517f08c379a00000000000000000000000000000000000000000000000000000000081526004016108649061404e565b60405180910390fd5b8073ffffffffffffffffffffffffffffffffffffffff1661088c6125ac565b73ffffffffffffffffffffffffffffffffffffffff1614806108bb57506108ba816108b56125ac565b611d3f565b5b6108fa576040517f08c379a00000000000000000000000000000000000000000000000000000000081526004016108f1906140e0565b60405180910390fd5b61090483836125b4565b505050565b61091a6109146125ac565b8261266d565b610959576040517f08c379a000000000000000000000000000000000000000000000000000000000815260040161095090614172565b60405180910390fd5b610964838383612702565b505050565b6109716134f1565b6000600f60003373ffffffffffffffffffffffffffffffffffffffff1673ffffffffffffffffffffffffffffffffffffffff1681526020019081526020016000205490506000811115610b3057600d60008281526020019081526020016000206040518060c0016040529081600082015481526020016001820180546109f690613faa565b80601f0160208091040260200160405190810160405280929190818152602001828054610a2290613faa565b8015610a6f5780601f10610a4457610100808354040283529160200191610a6f565b820191906000526020600020905b815481529060010190602001808311610a5257829003601f168201915b50505050508152602001600282018054610a8890613faa565b80601f0160208091040260200160405190810160405280929190818152602001828054610ab490613faa565b8015610b015780601f10610ad657610100808354040283529160200191610b01565b820191906000526020600020905b815481529060010190602001808311610ae457829003601f168201915b505050505081526020016003820154815260200160048201548152602001600582015481525050915050610b3e565b610b386134f1565b80925050505b90565b610b5c838383604051806020016040528060008152506113b1565b505050565b6000806002600084815260200190815260200160002060009054906101000a900473ffffffffffffffffffffffffffffffffffffffff169050600073ffffffffffffffffffffffffffffffffffffffff168173ffffffffffffffffffffffffffffffffffffffff161415610c0a576040517f08c379a0000000000000000000000000000000000000000000000000000000008152600401610c01906141de565b60405180910390fd5b80915050919050565b60008073ffffffffffffffffffffffffffffffffffffffff168273ffffffffffffffffffffffffffffffffffffffff161415610c84576040517f08c379a0000000000000000000000000000000000000000000000000000000008152600401610c7b90614270565b60405180910390fd5b600360008373ffffffffffffffffffffffffffffffffffffffff1673ffffffffffffffffffffffffffffffffffffffff168152602001908152602001600020549050919050565b600e6020528060005260406000206000915090505481565b6000600f60003373ffffffffffffffffffffffffffffffffffffffff1673ffffffffffffffffffffffffffffffffffffffff1681526020019081526020016000205490506000600d60008381526020019081526020016000209050610df66040518060600160405280603c815260200161507e603c9139826001018054610d6990613faa565b80601f0160208091040260200160405190810160405280929190818152602001828054610d9590613faa565b8015610de25780601f10610db757610100808354040283529160200191610de2565b820191906000526020600020905b815481529060010190602001808311610dc557829003601f168201915b505050505083600301548460050154612969565b610ece6040518060400160405280601b81526020017f426f73732025732068617320257320485020616e64202573204144000000000081525060066000018054610e3f90613faa565b80601f0160208091040260200160405190810160405280929190818152602001828054610e6b90613faa565b8015610eb85780601f10610e8d57610100808354040283529160200191610eb8565b820191906000526020600020905b815481529060010190602001808311610e9b57829003601f168201915b5050505050600660020154600660040154612969565b6000816003015411610f15576040517f08c379a0000000000000000000000000000000000000000000000000000000008152600401610f0c90614302565b60405180910390fd5b600060066002015411610f5d576040517f08c379a0000000000000000000000000000000000000000000000000000000008152600401610f5490614394565b60405180910390fd5b80600501546006600201541015610f7e576000600660020181905550610f9d565b8060050154600660020154610f9391906143e3565b6006600201819055505b60066004015481600301541015610fbd5760008160030181905550610fdb565b6006600401548160030154610fd291906143e3565b81600301819055505b611002604051806060016040528060258152602001614fc360259139600660020154612a0b565b611028604051806060016040528060288152602001615028602891398260030154612a0b565b7fa8f68fa0afad68f1577a1c5c66c297b751442bbab5e98c25f07ee510a921558c600660020154826003015460026040516110659392919061445c565b60405180910390a15050565b60606001805461108090613faa565b80601f01602080910402602001604051908101604052809291908181526020018280546110ac90613faa565b80156110f95780601f106110ce576101008083540402835291602001916110f9565b820191906000526020600020905b8154815290600101906020018083116110dc57829003601f168201915b5050505050905090565b600d60205280600052604060002060009150905080600001549080600101805461112c90613faa565b80601f016020809104026020016040519081016040528092919081815260200182805461115890613faa565b80156111a55780601f1061117a576101008083540402835291602001916111a5565b820191906000526020600020905b81548152906001019060200180831161118857829003601f168201915b5050505050908060020180546111ba90613faa565b80601f01602080910402602001604051908101604052809291908181526020018280546111e690613faa565b80156112335780601f1061120857610100808354040283529160200191611233565b820191906000526020600020905b81548152906001019060200180831161121657829003601f168201915b5050505050908060030154908060040154908060050154905086565b61126161125a6125ac565b8383612aa7565b5050565b600680600001805461127690613faa565b80601f01602080910402602001604051908101604052809291908181526020018280546112a290613faa565b80156112ef5780601f106112c4576101008083540402835291602001916112ef565b820191906000526020600020905b8154815290600101906020018083116112d257829003601f168201915b50505050509080600101805461130490613faa565b80601f016020809104026020016040519081016040528092919081815260200182805461133090613faa565b801561137d5780601f106113525761010080835404028352916020019161137d565b820191906000526020600020905b81548152906001019060200180831161136057829003601f168201915b5050505050908060020154908060030154908060040154905085565b600f6020528060005260406000206000915090505481565b6113c26113bc6125ac565b8361266d565b611401576040517f08c379a00000000000000000000000000000000000000000000000000000000081526004016113f890614172565b60405180910390fd5b61140d84848484612c14565b50505050565b6060600c805480602002602001604051908101604052809291908181526020016000905b828210156115b557838290600052602060002090600602016040518060c00160405290816000820154815260200160018201805461147490613faa565b80601f01602080910402602001604051908101604052809291908181526020018280546114a090613faa565b80156114ed5780601f106114c2576101008083540402835291602001916114ed565b820191906000526020600020905b8154815290600101906020018083116114d057829003601f168201915b5050505050815260200160028201805461150690613faa565b80601f016020809104026020016040519081016040528092919081815260200182805461153290613faa565b801561157f5780601f106115545761010080835404028352916020019161157f565b820191906000526020600020905b81548152906001019060200180831161156257829003601f168201915b50505050508152602001600382015481526020016004820154815260200160058201548152505081526020019060010190611437565b50505050905090565b60606000600d60008481526020019081526020016000206040518060c0016040529081600082015481526020016001820180546115fa90613faa565b80601f016020809104026020016040519081016040528092919081815260200182805461162690613faa565b80156116735780601f1061164857610100808354040283529160200191611673565b820191906000526020600020905b81548152906001019060200180831161165657829003601f168201915b5050505050815260200160028201805461168c90613faa565b80601f01602080910402602001604051908101604052809291908181526020018280546116b890613faa565b80156117055780601f106116da57610100808354040283529160200191611705565b820191906000526020600020905b8154815290600101906020018083116116e857829003601f168201915b5050505050815260200160038201548152602001600482015481526020016005820154815250509050600061173d8260600151612c70565b9050600061174e8360800151612c70565b9050600061175f8460a00151612c70565b905060006117a5856020015161177489612c70565b876040015187878760405160200161179196959493929190614755565b604051602081830303815290604052612dd1565b90506000816040516020016117ba9190614846565b6040516020818303038152906040529050809650505050505050919050565b6117e16134f1565b6000600e60003373ffffffffffffffffffffffffffffffffffffffff1673ffffffffffffffffffffffffffffffffffffffff16815260200190815260200160002054905060008111156119a057600d60008281526020019081526020016000206040518060c00160405290816000820154815260200160018201805461186690613faa565b80601f016020809104026020016040519081016040528092919081815260200182805461189290613faa565b80156118df5780601f106118b4576101008083540402835291602001916118df565b820191906000526020600020905b8154815290600101906020018083116118c257829003601f168201915b505050505081526020016002820180546118f890613faa565b80601f016020809104026020016040519081016040528092919081815260200182805461192490613faa565b80156119715780601f1061194657610100808354040283529160200191611971565b820191906000526020600020905b81548152906001019060200180831161195457829003601f168201915b5050505050815260200160038201548152602001600482015481526020016005820154815250509150506119ae565b6119a86134f1565b80925050505b90565b6000600e60003373ffffffffffffffffffffffffffffffffffffffff1673ffffffffffffffffffffffffffffffffffffffff1681526020019081526020016000205490506000600d60008381526020019081526020016000209050611ac46040518060600160405280603c815260200161507e603c9139826001018054611a3790613faa565b80601f0160208091040260200160405190810160405280929190818152602001828054611a6390613faa565b8015611ab05780601f10611a8557610100808354040283529160200191611ab0565b820191906000526020600020905b815481529060010190602001808311611a9357829003601f168201915b505050505083600301548460050154612969565b611b9c6040518060400160405280601b81526020017f426f73732025732068617320257320485020616e64202573204144000000000081525060066000018054611b0d90613faa565b80601f0160208091040260200160405190810160405280929190818152602001828054611b3990613faa565b8015611b865780601f10611b5b57610100808354040283529160200191611b86565b820191906000526020600020905b815481529060010190602001808311611b6957829003601f168201915b5050505050600660020154600660040154612969565b6000816003015411611be3576040517f08c379a0000000000000000000000000000000000000000000000000000000008152600401611bda90614302565b60405180910390fd5b600060066002015411611c2b576040517f08c379a0000000000000000000000000000000000000000000000000000000008152600401611c2290614394565b60405180910390fd5b80600501546006600201541015611c4c576000600660020181905550611c6b565b8060050154600660020154611c6191906143e3565b6006600201819055505b60066004015481600301541015611c8b5760008160030181905550611ca9565b6006600401548160030154611ca091906143e3565b81600301819055505b611cd0604051806060016040528060258152602001614fc360259139600660020154612a0b565b611cf6604051806060016040528060288152602001615028602891398260030154612a0b565b7fa8f68fa0afad68f1577a1c5c66c297b751442bbab5e98c25f07ee510a921558c60066002015482600301546001604051611d33939291906148a3565b60405180910390a15050565b6000600560008473ffffffffffffffffffffffffffffffffffffffff1673ffffffffffffffffffffffffffffffffffffffff16815260200190815260200160002060008373ffffffffffffffffffffffffffffffffffffffff1673ffffffffffffffffffffffffffffffffffffffff16815260200190815260200160002060009054906101000a900460ff16905092915050565b6000611ddf600b612f69565b9050611deb3382612f77565b6040518060c00160405280838152602001600c8481548110611e1057611e0f6148da565b5b90600052602060002090600602016001018054611e2c90613faa565b80601f0160208091040260200160405190810160405280929190818152602001828054611e5890613faa565b8015611ea55780601f10611e7a57610100808354040283529160200191611ea5565b820191906000526020600020905b815481529060010190602001808311611e8857829003601f168201915b50505050508152602001600c8481548110611ec357611ec26148da565b5b90600052602060002090600602016002018054611edf90613faa565b80601f0160208091040260200160405190810160405280929190818152602001828054611f0b90613faa565b8015611f585780601f10611f2d57610100808354040283529160200191611f58565b820191906000526020600020905b815481529060010190602001808311611f3b57829003601f168201915b50505050508152602001600c8481548110611f7657611f756148da565b5b9060005260206000209060060201600301548152602001600c8481548110611fa157611fa06148da565b5b9060005260206000209060060201600401548152602001600c8481548110611fcc57611fcb6148da565b5b906000526020600020906006020160050154815250600d600083815260200190815260200160002060008201518160000155602082015181600101908051906020019061201a929190613527565b506040820151816002019080519060200190612037929190613527565b50606082015181600301556080820151816004015560a0820151816005015590505061207c6040518060600160405280602e8152602001615050602e91398284612f95565b80600e60003373ffffffffffffffffffffffffffffffffffffffff1673ffffffffffffffffffffffffffffffffffffffff168152602001908152602001600020819055506120ca600b6124e1565b7f4bc303fd457a97b4691b9af582ce71868a3d258638c8d4f8c60988a0f0bfb8cd3382846040516120fd93929190614909565b60405180910390a15050565b6000612115600b612f69565b90506121213382612f77565b6040518060c00160405280838152602001600c8481548110612146576121456148da565b5b9060005260206000209060060201600101805461216290613faa565b80601f016020809104026020016040519081016040528092919081815260200182805461218e90613faa565b80156121db5780601f106121b0576101008083540402835291602001916121db565b820191906000526020600020905b8154815290600101906020018083116121be57829003601f168201915b50505050508152602001600c84815481106121f9576121f86148da565b5b9060005260206000209060060201600201805461221590613faa565b80601f016020809104026020016040519081016040528092919081815260200182805461224190613faa565b801561228e5780601f106122635761010080835404028352916020019161228e565b820191906000526020600020905b81548152906001019060200180831161227157829003601f168201915b50505050508152602001600c84815481106122ac576122ab6148da565b5b9060005260206000209060060201600301548152602001600c84815481106122d7576122d66148da565b5b9060005260206000209060060201600401548152602001600c8481548110612302576123016148da565b5b906000526020600020906006020160050154815250600d6000838152602001908152602001600020600082015181600001556020820151816001019080519060200190612350929190613527565b50604082015181600201908051906020019061236d929190613527565b50606082015181600301556080820151816004015560a082015181600501559050506123b26040518060600160405280602e8152602001615050602e91398284612f95565b80600f60003373ffffffffffffffffffffffffffffffffffffffff1673ffffffffffffffffffffffffffffffffffffffff16815260200190815260200160002081905550612400600b6124e1565b7f4bc303fd457a97b4691b9af582ce71868a3d258638c8d4f8c60988a0f0bfb8cd33828460405161243393929190614909565b60405180910390a15050565b6124db848484846040516024016124599493929190614940565b6040516020818303038152906040527f8d142cdd000000000000000000000000000000000000000000000000000000007bffffffffffffffffffffffffffffffffffffffffffffffffffffffff19166020820180517bffffffffffffffffffffffffffffffffffffffffffffffffffffffff8381831617835250505050613034565b50505050565b6001816000016000828254019250508190555050565b60007f01ffc9a7000000000000000000000000000000000000000000000000000000007bffffffffffffffffffffffffffffffffffffffffffffffffffffffff1916827bffffffffffffffffffffffffffffffffffffffffffffffffffffffff1916149050919050565b61256a8161305d565b6125a9576040517f08c379a00000000000000000000000000000000000000000000000000000000081526004016125a0906141de565b60405180910390fd5b50565b600033905090565b816004600083815260200190815260200160002060006101000a81548173ffffffffffffffffffffffffffffffffffffffff021916908373ffffffffffffffffffffffffffffffffffffffff160217905550808273ffffffffffffffffffffffffffffffffffffffff1661262783610b61565b73ffffffffffffffffffffffffffffffffffffffff167f8c5be1e5ebec7d5bd14f71427d1e84f3dd0314c0f7b2291e5b200ac8c7c3b92560405160405180910390a45050565b60008061267983610b61565b90508073ffffffffffffffffffffffffffffffffffffffff168473ffffffffffffffffffffffffffffffffffffffff1614806126bb57506126ba8185611d3f565b5b806126f957508373ffffffffffffffffffffffffffffffffffffffff166126e1846107ab565b73ffffffffffffffffffffffffffffffffffffffff16145b91505092915050565b8273ffffffffffffffffffffffffffffffffffffffff1661272282610b61565b73ffffffffffffffffffffffffffffffffffffffff1614612778576040517f08c379a000000000000000000000000000000000000000000000000000000000815260040161276f90614a0c565b60405180910390fd5b600073ffffffffffffffffffffffffffffffffffffffff168273ffffffffffffffffffffffffffffffffffffffff1614156127e8576040517f08c379a00000000000000000000000000000000000000000000000000000000081526004016127df90614a9e565b60405180910390fd5b6127f38383836130c9565b6127fe6000826125b4565b6001600360008573ffffffffffffffffffffffffffffffffffffffff1673ffffffffffffffffffffffffffffffffffffffff168152602001908152602001600020600082825461284e91906143e3565b925050819055506001600360008473ffffffffffffffffffffffffffffffffffffffff1673ffffffffffffffffffffffffffffffffffffffff16815260200190815260200160002060008282546128a59190614abe565b92505081905550816002600083815260200190815260200160002060006101000a81548173ffffffffffffffffffffffffffffffffffffffff021916908373ffffffffffffffffffffffffffffffffffffffff160217905550808273ffffffffffffffffffffffffffffffffffffffff168473ffffffffffffffffffffffffffffffffffffffff167fddf252ad1be2c89b69c2b068fc378daa952ba7f163c4a11628f55a4df523b3ef60405160405180910390a46129648383836130ce565b505050565b612a05848484846040516024016129839493929190614b14565b6040516020818303038152906040527fd5cf17d0000000000000000000000000000000000000000000000000000000007bffffffffffffffffffffffffffffffffffffffffffffffffffffffff19166020820180517bffffffffffffffffffffffffffffffffffffffffffffffffffffffff8381831617835250505050613034565b50505050565b612aa38282604051602401612a21929190614b67565b6040516020818303038152906040527f9710a9d0000000000000000000000000000000000000000000000000000000007bffffffffffffffffffffffffffffffffffffffffffffffffffffffff19166020820180517bffffffffffffffffffffffffffffffffffffffffffffffffffffffff8381831617835250505050613034565b5050565b8173ffffffffffffffffffffffffffffffffffffffff168373ffffffffffffffffffffffffffffffffffffffff161415612b16576040517f08c379a0000000000000000000000000000000000000000000000000000000008152600401612b0d90614be3565b60405180910390fd5b80600560008573ffffffffffffffffffffffffffffffffffffffff1673ffffffffffffffffffffffffffffffffffffffff16815260200190815260200160002060008473ffffffffffffffffffffffffffffffffffffffff1673ffffffffffffffffffffffffffffffffffffffff16815260200190815260200160002060006101000a81548160ff0219169083151502179055508173ffffffffffffffffffffffffffffffffffffffff168373ffffffffffffffffffffffffffffffffffffffff167f17307eab39ab6107e8899845ad3d59bd9653f200f220920489ca2b5937696c3183604051612c07919061367e565b60405180910390a3505050565b612c1f848484612702565b612c2b848484846130d3565b612c6a576040517f08c379a0000000000000000000000000000000000000000000000000000000008152600401612c6190614c75565b60405180910390fd5b50505050565b60606000821415612cb8576040518060400160405280600181526020017f30000000000000000000000000000000000000000000000000000000000000008152509050612dcc565b600082905060005b60008214612cea578080612cd390614c95565b915050600a82612ce39190614d0d565b9150612cc0565b60008167ffffffffffffffff811115612d0657612d05613c19565b5b6040519080825280601f01601f191660200182016040528015612d385781602001600182028036833780820191505090505b5090505b60008514612dc557600182612d5191906143e3565b9150600a85612d609190614d3e565b6030612d6c9190614abe565b60f81b818381518110612d8257612d816148da565b5b60200101907effffffffffffffffffffffffffffffffffffffffffffffffffffffffffffff1916908160001a905350600a85612dbe9190614d0d565b9450612d3c565b8093505050505b919050565b60606000825190506000811415612dfa5760405180602001604052806000815250915050612f64565b60006003600283612e0b9190614abe565b612e159190614d0d565b6004612e219190614d6f565b90506000602082612e329190614abe565b67ffffffffffffffff811115612e4b57612e4a613c19565b5b6040519080825280601f01601f191660200182016040528015612e7d5781602001600182028036833780820191505090505b5090506000604051806060016040528060408152602001614fe8604091399050600181016020830160005b86811015612f215760038101905062ffffff818a015116603f8160121c168401518060081b905060ff603f83600c1c1686015116810190508060081b905060ff603f8360061c1686015116810190508060081b905060ff603f831686015116810190508060e01b90508084526004840193505050612ea8565b506003860660018114612f3b5760028114612f4b57612f56565b613d3d60f01b6002830352612f56565b603d60f81b60018303525b508484525050819450505050505b919050565b600081600001549050919050565b612f9182826040518060200160405280600081525061326a565b5050565b61302f838383604051602401612fad93929190614dc9565b6040516020818303038152906040527f969cdd03000000000000000000000000000000000000000000000000000000007bffffffffffffffffffffffffffffffffffffffffffffffffffffffff19166020820180517bffffffffffffffffffffffffffffffffffffffffffffffffffffffff8381831617835250505050613034565b505050565b60008151905060006a636f6e736f6c652e6c6f679050602083016000808483855afa5050505050565b60008073ffffffffffffffffffffffffffffffffffffffff166002600084815260200190815260200160002060009054906101000a900473ffffffffffffffffffffffffffffffffffffffff1673ffffffffffffffffffffffffffffffffffffffff1614159050919050565b505050565b505050565b60006130f48473ffffffffffffffffffffffffffffffffffffffff166132c5565b1561325d578373ffffffffffffffffffffffffffffffffffffffff1663150b7a0261311d6125ac565b8786866040518563ffffffff1660e01b815260040161313f9493929190614e5c565b602060405180830381600087803b15801561315957600080fd5b505af192505050801561318a57506040513d601f19601f820116820180604052508101906131879190614ebd565b60015b61320d573d80600081146131ba576040519150601f19603f3d011682016040523d82523d6000602084013e6131bf565b606091505b50600081511415613205576040517f08c379a00000000000000000000000000000000000000000000000000000000081526004016131fc90614c75565b60405180910390fd5b805181602001fd5b63150b7a0260e01b7bffffffffffffffffffffffffffffffffffffffffffffffffffffffff1916817bffffffffffffffffffffffffffffffffffffffffffffffffffffffff191614915050613262565b600190505b949350505050565b61327483836132e8565b61328160008484846130d3565b6132c0576040517f08c379a00000000000000000000000000000000000000000000000000000000081526004016132b790614c75565b60405180910390fd5b505050565b6000808273ffffffffffffffffffffffffffffffffffffffff163b119050919050565b600073ffffffffffffffffffffffffffffffffffffffff168273ffffffffffffffffffffffffffffffffffffffff161415613358576040517f08c379a000000000000000000000000000000000000000000000000000000000815260040161334f90614f36565b60405180910390fd5b6133618161305d565b156133a1576040517f08c379a000000000000000000000000000000000000000000000000000000000815260040161339890614fa2565b60405180910390fd5b6133ad600083836130c9565b6001600360008473ffffffffffffffffffffffffffffffffffffffff1673ffffffffffffffffffffffffffffffffffffffff16815260200190815260200160002060008282546133fd9190614abe565b92505081905550816002600083815260200190815260200160002060006101000a81548173ffffffffffffffffffffffffffffffffffffffff021916908373ffffffffffffffffffffffffffffffffffffffff160217905550808273ffffffffffffffffffffffffffffffffffffffff16600073ffffffffffffffffffffffffffffffffffffffff167fddf252ad1be2c89b69c2b068fc378daa952ba7f163c4a11628f55a4df523b3ef60405160405180910390a46134be600083836130ce565b5050565b6040518060a0016040528060608152602001606081526020016000815260200160008152602001600081525090565b6040518060c001604052806000815260200160608152602001606081526020016000815260200160008152602001600081525090565b82805461353390613faa565b90600052602060002090601f016020900481019282613555576000855561359c565b82601f1061356e57805160ff191683800117855561359c565b8280016001018555821561359c579182015b8281111561359b578251825591602001919060010190613580565b5b5090506135a991906135ad565b5090565b5b808211156135c65760008160009055506001016135ae565b5090565b6000604051905090565b600080fd5b600080fd5b60007fffffffff0000000000000000000000000000000000000000000000000000000082169050919050565b613613816135de565b811461361e57600080fd5b50565b6000813590506136308161360a565b92915050565b60006020828403121561364c5761364b6135d4565b5b600061365a84828501613621565b91505092915050565b60008115159050919050565b61367881613663565b82525050565b6000602082019050613693600083018461366f565b92915050565b600081519050919050565b600082825260208201905092915050565b60005b838110156136d35780820151818401526020810190506136b8565b838111156136e2576000848401525b50505050565b6000601f19601f8301169050919050565b600061370482613699565b61370e81856136a4565b935061371e8185602086016136b5565b613727816136e8565b840191505092915050565b6000819050919050565b61374581613732565b82525050565b600060a083016000830151848203600086015261376882826136f9565b9150506020830151848203602086015261378282826136f9565b9150506040830151613797604086018261373c565b5060608301516137aa606086018261373c565b5060808301516137bd608086018261373c565b508091505092915050565b600060208201905081810360008301526137e2818461374b565b905092915050565b600082825260208201905092915050565b600061380682613699565b61381081856137ea565b93506138208185602086016136b5565b613829816136e8565b840191505092915050565b6000602082019050818103600083015261384e81846137fb565b905092915050565b61385f81613732565b811461386a57600080fd5b50565b60008135905061387c81613856565b92915050565b600060208284031215613898576138976135d4565b5b60006138a68482850161386d565b91505092915050565b600073ffffffffffffffffffffffffffffffffffffffff82169050919050565b60006138da826138af565b9050919050565b6138ea816138cf565b82525050565b600060208201905061390560008301846138e1565b92915050565b613914816138cf565b811461391f57600080fd5b50565b6000813590506139318161390b565b92915050565b6000806040838503121561394e5761394d6135d4565b5b600061395c85828601613922565b925050602061396d8582860161386d565b9150509250929050565b6000806000606084860312156139905761398f6135d4565b5b600061399e86828701613922565b93505060206139af86828701613922565b92505060406139c08682870161386d565b9150509250925092565b600060c0830160008301516139e2600086018261373c565b50602083015184820360208601526139fa82826136f9565b91505060408301518482036040860152613a1482826136f9565b9150506060830151613a29606086018261373c565b506080830151613a3c608086018261373c565b5060a0830151613a4f60a086018261373c565b508091505092915050565b60006020820190508181036000830152613a7481846139ca565b905092915050565b600060208284031215613a9257613a916135d4565b5b6000613aa084828501613922565b91505092915050565b613ab281613732565b82525050565b6000602082019050613acd6000830184613aa9565b92915050565b600060c082019050613ae86000830189613aa9565b8181036020830152613afa81886137fb565b90508181036040830152613b0e81876137fb565b9050613b1d6060830186613aa9565b613b2a6080830185613aa9565b613b3760a0830184613aa9565b979650505050505050565b613b4b81613663565b8114613b5657600080fd5b50565b600081359050613b6881613b42565b92915050565b60008060408385031215613b8557613b846135d4565b5b6000613b9385828601613922565b9250506020613ba485828601613b59565b9150509250929050565b600060a0820190508181036000830152613bc881886137fb565b90508181036020830152613bdc81876137fb565b9050613beb6040830186613aa9565b613bf86060830185613aa9565b613c056080830184613aa9565b9695505050505050565b600080fd5b600080fd5b7f4e487b7100000000000000000000000000000000000000000000000000000000600052604160045260246000fd5b613c51826136e8565b810181811067ffffffffffffffff82111715613c7057613c6f613c19565b5b80604052505050565b6000613c836135ca565b9050613c8f8282613c48565b919050565b600067ffffffffffffffff821115613caf57613cae613c19565b5b613cb8826136e8565b9050602081019050919050565b82818337600083830152505050565b6000613ce7613ce284613c94565b613c79565b905082815260208101848484011115613d0357613d02613c14565b5b613d0e848285613cc5565b509392505050565b600082601f830112613d2b57613d2a613c0f565b5b8135613d3b848260208601613cd4565b91505092915050565b60008060008060808587031215613d5e57613d5d6135d4565b5b6000613d6c87828801613922565b9450506020613d7d87828801613922565b9350506040613d8e8782880161386d565b925050606085013567ffffffffffffffff811115613daf57613dae6135d9565b5b613dbb87828801613d16565b91505092959194509250565b600081519050919050565b600082825260208201905092915050565b6000819050602082019050919050565b600060c083016000830151613e0b600086018261373c565b5060208301518482036020860152613e2382826136f9565b91505060408301518482036040860152613e3d82826136f9565b9150506060830151613e52606086018261373c565b506080830151613e65608086018261373c565b5060a0830151613e7860a086018261373c565b508091505092915050565b6000613e8f8383613df3565b905092915050565b6000602082019050919050565b6000613eaf82613dc7565b613eb98185613dd2565b935083602082028501613ecb85613de3565b8060005b85811015613f075784840389528151613ee88582613e83565b9450613ef383613e97565b925060208a01995050600181019050613ecf565b50829750879550505050505092915050565b60006020820190508181036000830152613f338184613ea4565b905092915050565b60008060408385031215613f5257613f516135d4565b5b6000613f6085828601613922565b9250506020613f7185828601613922565b9150509250929050565b7f4e487b7100000000000000000000000000000000000000000000000000000000600052602260045260246000fd5b60006002820490506001821680613fc257607f821691505b60208210811415613fd657613fd5613f7b565b5b50919050565b7f4552433732313a20617070726f76616c20746f2063757272656e74206f776e6560008201527f7200000000000000000000000000000000000000000000000000000000000000602082015250565b60006140386021836137ea565b915061404382613fdc565b604082019050919050565b600060208201905081810360008301526140678161402b565b9050919050565b7f4552433732313a20617070726f76652063616c6c6572206973206e6f7420746f60008201527f6b656e206f776e6572206e6f7220617070726f76656420666f7220616c6c0000602082015250565b60006140ca603e836137ea565b91506140d58261406e565b604082019050919050565b600060208201905081810360008301526140f9816140bd565b9050919050565b7f4552433732313a2063616c6c6572206973206e6f7420746f6b656e206f776e6560008201527f72206e6f7220617070726f766564000000000000000000000000000000000000602082015250565b600061415c602e836137ea565b915061416782614100565b604082019050919050565b6000602082019050818103600083015261418b8161414f565b9050919050565b7f4552433732313a20696e76616c696420746f6b656e2049440000000000000000600082015250565b60006141c86018836137ea565b91506141d382614192565b602082019050919050565b600060208201905081810360008301526141f7816141bb565b9050919050565b7f4552433732313a2061646472657373207a65726f206973206e6f74206120766160008201527f6c6964206f776e65720000000000000000000000000000000000000000000000602082015250565b600061425a6029836137ea565b9150614265826141fe565b604082019050919050565b600060208201905081810360008301526142898161424d565b9050919050565b7f4572726f723a20636861726163746572206d757374206861766520485020746f60008201527f2061747461636b20626f73732e00000000000000000000000000000000000000602082015250565b60006142ec602d836137ea565b91506142f782614290565b604082019050919050565b6000602082019050818103600083015261431b816142df565b9050919050565b7f4572726f723a20626f7373206d757374206861766520485020746f206174746160008201527f636b20636861726163746572732e000000000000000000000000000000000000602082015250565b600061437e602e836137ea565b915061438982614322565b604082019050919050565b600060208201905081810360008301526143ad81614371565b9050919050565b7f4e487b7100000000000000000000000000000000000000000000000000000000600052601160045260246000fd5b60006143ee82613732565b91506143f983613732565b92508282101561440c5761440b6143b4565b5b828203905092915050565b6000819050919050565b6000819050919050565b600061444661444161443c84614417565b614421565b613732565b9050919050565b6144568161442b565b82525050565b60006060820190506144716000830186613aa9565b61447e6020830185613aa9565b61448b604083018461444d565b949350505050565b600081905092915050565b7f7b226e616d65223a202200000000000000000000000000000000000000000000600082015250565b60006144d4600a83614493565b91506144df8261449e565b600a82019050919050565b60006144f582613699565b6144ff8185614493565b935061450f8185602086016136b5565b80840191505092915050565b7f202d2d204e465420233a20000000000000000000000000000000000000000000600082015250565b6000614551600b83614493565b915061455c8261451b565b600b82019050919050565b7f222c20226465736372697074696f6e223a2022416e2065706963204e4654222c60008201527f2022696d616765223a2022697066733a2f2f0000000000000000000000000000602082015250565b60006145c3603283614493565b91506145ce82614567565b603282019050919050565b7f222c202261747472696275746573223a205b207b202274726169745f7479706560008201527f223a20224865616c746820506f696e7473222c202276616c7565223a20000000602082015250565b6000614635603d83614493565b9150614640826145d9565b603d82019050919050565b7f2c20226d61785f76616c7565223a000000000000000000000000000000000000600082015250565b6000614681600e83614493565b915061468c8261464b565b600e82019050919050565b7f7d2c207b202274726169745f74797065223a202241747461636b2044616d616760008201527f65222c202276616c7565223a2000000000000000000000000000000000000000602082015250565b60006146f3602d83614493565b91506146fe82614697565b602d82019050919050565b7f7d205d7d00000000000000000000000000000000000000000000000000000000600082015250565b600061473f600483614493565b915061474a82614709565b600482019050919050565b6000614760826144c7565b915061476c82896144ea565b915061477782614544565b915061478382886144ea565b915061478e826145b6565b915061479a82876144ea565b91506147a582614628565b91506147b182866144ea565b91506147bc82614674565b91506147c882856144ea565b91506147d3826146e6565b91506147df82846144ea565b91506147ea82614732565b9150819050979650505050505050565b7f646174613a6170706c69636174696f6e2f6a736f6e3b6261736536342c000000600082015250565b6000614830601d83614493565b915061483b826147fa565b601d82019050919050565b600061485182614823565b915061485d82846144ea565b915081905092915050565b6000819050919050565b600061488d61488861488384614868565b614421565b613732565b9050919050565b61489d81614872565b82525050565b60006060820190506148b86000830186613aa9565b6148c56020830185613aa9565b6148d26040830184614894565b949350505050565b7f4e487b7100000000000000000000000000000000000000000000000000000000600052603260045260246000fd5b600060608201905061491e60008301866138e1565b61492b6020830185613aa9565b6149386040830184613aa9565b949350505050565b6000608082019050818103600083015261495a81876137fb565b9050818103602083015261496e81866137fb565b905061497d6040830185613aa9565b818103606083015261498f81846137fb565b905095945050505050565b7f4552433732313a207472616e736665722066726f6d20696e636f72726563742060008201527f6f776e6572000000000000000000000000000000000000000000000000000000602082015250565b60006149f66025836137ea565b9150614a018261499a565b604082019050919050565b60006020820190508181036000830152614a25816149e9565b9050919050565b7f4552433732313a207472616e7366657220746f20746865207a65726f2061646460008201527f7265737300000000000000000000000000000000000000000000000000000000602082015250565b6000614a886024836137ea565b9150614a9382614a2c565b604082019050919050565b60006020820190508181036000830152614ab781614a7b565b9050919050565b6000614ac982613732565b9150614ad483613732565b9250827fffffffffffffffffffffffffffffffffffffffffffffffffffffffffffffffff03821115614b0957614b086143b4565b5b828201905092915050565b60006080820190508181036000830152614b2e81876137fb565b90508181036020830152614b4281866137fb565b9050614b516040830185613aa9565b614b5e6060830184613aa9565b95945050505050565b60006040820190508181036000830152614b8181856137fb565b9050614b906020830184613aa9565b9392505050565b7f4552433732313a20617070726f766520746f2063616c6c657200000000000000600082015250565b6000614bcd6019836137ea565b9150614bd882614b97565b602082019050919050565b60006020820190508181036000830152614bfc81614bc0565b9050919050565b7f4552433732313a207472616e7366657220746f206e6f6e20455243373231526560008201527f63656976657220696d706c656d656e7465720000000000000000000000000000602082015250565b6000614c5f6032836137ea565b9150614c6a82614c03565b604082019050919050565b60006020820190508181036000830152614c8e81614c52565b9050919050565b6000614ca082613732565b91507fffffffffffffffffffffffffffffffffffffffffffffffffffffffffffffffff821415614cd357614cd26143b4565b5b600182019050919050565b7f4e487b7100000000000000000000000000000000000000000000000000000000600052601260045260246000fd5b6000614d1882613732565b9150614d2383613732565b925082614d3357614d32614cde565b5b828204905092915050565b6000614d4982613732565b9150614d5483613732565b925082614d6457614d63614cde565b5b828206905092915050565b6000614d7a82613732565b9150614d8583613732565b9250817fffffffffffffffffffffffffffffffffffffffffffffffffffffffffffffffff0483118215151615614dbe57614dbd6143b4565b5b828202905092915050565b60006060820190508181036000830152614de381866137fb565b9050614df26020830185613aa9565b614dff6040830184613aa9565b949350505050565b600081519050919050565b600082825260208201905092915050565b6000614e2e82614e07565b614e388185614e12565b9350614e488185602086016136b5565b614e51816136e8565b840191505092915050565b6000608082019050614e7160008301876138e1565b614e7e60208301866138e1565b614e8b6040830185613aa9565b8181036060830152614e9d8184614e23565b905095945050505050565b600081519050614eb78161360a565b92915050565b600060208284031215614ed357614ed26135d4565b5b6000614ee184828501614ea8565b91505092915050565b7f4552433732313a206d696e7420746f20746865207a65726f2061646472657373600082015250565b6000614f206020836137ea565b9150614f2b82614eea565b602082019050919050565b60006020820190508181036000830152614f4f81614f13565b9050919050565b7f4552433732313a20746f6b656e20616c7265616479206d696e74656400000000600082015250565b6000614f8c601c836137ea565b9150614f9782614f56565b602082019050919050565b60006020820190508181036000830152614fbb81614f7f565b905091905056fe506c617965722061747461636b656420626f73732e204e657720626f73732068703a2025734142434445464748494a4b4c4d4e4f505152535455565758595a6162636465666768696a6b6c6d6e6f707172737475767778797a303132333435363738392b2f426f73732061747461636b656420706c617965722e204e657720706c617965722068703a2025730a4d696e746564204e465420772f20746f6b656e496420257320616e6420636861726163746572496e6465782025730a506c6179657220772f206368617261637465722025732061626f757420746f2061747461636b2e2048617320257320485020616e64202573204144a264697066735822122005ef695cce503a2ca2b86e9a3835b37ab9efa22251770ff2b97f207fec9b3e0c64736f6c63430008090033446f6e6520696e697469616c697a696e6720257320772f2048502025732c20696d67202573446f6e6520696e697469616c697a696e6720626f737320257320772f2048502025732c20696d67202573",
  "linkReferences": {},
  "deployedLinkReferences": {}
}